{
  "_format": "hh-sol-artifact-1",
  "contractName": "NFTTrader",
  "sourceName": "contracts/NFTTrader.sol",
  "abi": [
    {
      "inputs": [],
      "stateMutability": "nonpayable",
      "type": "constructor"
    },
    {
      "inputs": [
        {
          "internalType": "address",
          "name": "",
          "type": "address"
        },
        {
          "internalType": "address",
          "name": "",
          "type": "address"
        },
        {
          "internalType": "uint256",
          "name": "",
          "type": "uint256"
        },
        {
          "internalType": "bytes",
          "name": "",
          "type": "bytes"
        }
      ],
      "name": "onERC721Received",
      "outputs": [
        {
          "internalType": "bytes4",
          "name": "",
          "type": "bytes4"
        }
      ],
      "stateMutability": "nonpayable",
      "type": "function"
    },
    {
      "inputs": [
        {
          "internalType": "address",
          "name": "_receiver",
          "type": "address"
        },
        {
          "internalType": "address",
          "name": "_token",
          "type": "address"
        },
        {
          "internalType": "uint256",
          "name": "_tokenId",
          "type": "uint256"
        }
      ],
      "name": "sendNFT",
      "outputs": [],
      "stateMutability": "nonpayable",
      "type": "function"
    }
  ],
  "bytecode": "0x608060405234801561001057600080fd5b5061048c806100206000396000f3fe608060405234801561001057600080fd5b50600436106100365760003560e01c8063150b7a021461003b578063b99ab7ed1461006b575b600080fd5b610055600480360381019061005091906101f0565b610087565b60405161006291906102cf565b60405180910390f35b610085600480360381019061008091906101a1565b61009b565b005b600063150b7a0260e01b9050949350505050565b8173ffffffffffffffffffffffffffffffffffffffff166342842e0e3085846040518463ffffffff1660e01b81526004016100d893929190610298565b600060405180830381600087803b1580156100f257600080fd5b505af1158015610106573d6000803e3d6000fd5b50505050505050565b600061012261011d8461030f565b6102ea565b90508281526020810184848401111561013a57600080fd5b6101458482856103a8565b509392505050565b60008135905061015c81610428565b92915050565b600082601f83011261017357600080fd5b813561018384826020860161010f565b91505092915050565b60008135905061019b8161043f565b92915050565b6000806000606084860312156101b657600080fd5b60006101c48682870161014d565b93505060206101d58682870161014d565b92505060406101e68682870161018c565b9150509250925092565b6000806000806080858703121561020657600080fd5b60006102148782880161014d565b94505060206102258782880161014d565b93505060406102368782880161018c565b925050606085013567ffffffffffffffff81111561025357600080fd5b61025f87828801610162565b91505092959194509250565b61027481610340565b82525050565b61028381610352565b82525050565b6102928161039e565b82525050565b60006060820190506102ad600083018661026b565b6102ba602083018561026b565b6102c76040830184610289565b949350505050565b60006020820190506102e4600083018461027a565b92915050565b60006102f4610305565b905061030082826103b7565b919050565b6000604051905090565b600067ffffffffffffffff82111561032a576103296103e8565b5b61033382610417565b9050602081019050919050565b600061034b8261037e565b9050919050565b60007fffffffff0000000000000000000000000000000000000000000000000000000082169050919050565b600073ffffffffffffffffffffffffffffffffffffffff82169050919050565b6000819050919050565b82818337600083830152505050565b6103c082610417565b810181811067ffffffffffffffff821117156103df576103de6103e8565b5b80604052505050565b7f4e487b7100000000000000000000000000000000000000000000000000000000600052604160045260246000fd5b6000601f19601f8301169050919050565b61043181610340565b811461043c57600080fd5b50565b6104488161039e565b811461045357600080fd5b5056fea2646970667358221220d5d14d7562bef1ec54b06e0945a414c6d54d6852d1b76650a6ac78de6bb6fc0464736f6c63430008040033",
  "linkReferences": {},
  "deployedLinkReferences": {}
}