{
  "_format": "hh-sol-artifact-1",
  "contractName": "NFTTrader",
  "sourceName": "contracts/NFTTrader.sol",
  "abi": [
    {
      "inputs": [
        {
          "internalType": "address",
          "name": "_cUsdTokenAddress",
          "type": "address"
        }
      ],
      "stateMutability": "nonpayable",
      "type": "constructor"
    },
    {
      "inputs": [
        {
          "internalType": "uint256",
          "name": "_tokenId",
          "type": "uint256"
        }
      ],
      "name": "getTokenOwner",
      "outputs": [
        {
          "internalType": "address",
          "name": "",
          "type": "address"
        }
      ],
      "stateMutability": "view",
      "type": "function"
    },
    {
      "inputs": [
        {
          "internalType": "address",
          "name": "",
          "type": "address"
        },
        {
          "internalType": "address",
          "name": "",
          "type": "address"
        },
        {
          "internalType": "uint256",
          "name": "",
          "type": "uint256"
        },
        {
          "internalType": "bytes",
          "name": "",
          "type": "bytes"
        }
      ],
      "name": "onERC721Received",
      "outputs": [
        {
          "internalType": "bytes4",
          "name": "",
          "type": "bytes4"
        }
      ],
      "stateMutability": "nonpayable",
      "type": "function"
    },
    {
      "inputs": [
        {
          "internalType": "uint256",
          "name": "_tokenId",
          "type": "uint256"
        }
      ],
      "name": "removeUserData",
      "outputs": [],
      "stateMutability": "nonpayable",
      "type": "function"
    },
    {
      "inputs": [
        {
          "internalType": "address",
          "name": "_receiver",
          "type": "address"
        },
        {
          "internalType": "address",
          "name": "_token",
          "type": "address"
        },
        {
          "internalType": "uint256",
          "name": "_tokenId",
          "type": "uint256"
        },
        {
          "internalType": "uint256",
          "name": "_price",
          "type": "uint256"
        }
      ],
      "name": "sellNFT",
      "outputs": [],
      "stateMutability": "nonpayable",
      "type": "function"
    },
    {
      "inputs": [
        {
          "internalType": "address",
          "name": "_user",
          "type": "address"
        },
        {
          "internalType": "uint256",
          "name": "_tokenId",
          "type": "uint256"
        }
      ],
      "name": "storeUserData",
      "outputs": [],
      "stateMutability": "nonpayable",
      "type": "function"
    }
  ],
  "bytecode": "0x608060405234801561001057600080fd5b506040516108f03803806108f08339818101604052810190610032919061008e565b80600160006101000a81548173ffffffffffffffffffffffffffffffffffffffff021916908373ffffffffffffffffffffffffffffffffffffffff16021790555050610100565b600081519050610088816100e9565b92915050565b6000602082840312156100a057600080fd5b60006100ae84828501610079565b91505092915050565b60006100c2826100c9565b9050919050565b600073ffffffffffffffffffffffffffffffffffffffff82169050919050565b6100f2816100b7565b81146100fd57600080fd5b50565b6107e18061010f6000396000f3fe608060405234801561001057600080fd5b50600436106100575760003560e01c8063150b7a021461005c5780636371af2a1461008c5780637fc3a0f6146100a8578063a5cd761f146100c4578063e5c24394146100f4575b600080fd5b610076600480360381019061007191906103ed565b610110565b6040516100839190610601565b60405180910390f35b6100a660048036038101906100a191906104cb565b610124565b005b6100c260048036038101906100bd9190610530565b610179565b005b6100de60048036038101906100d99190610530565b6101ce565b6040516100eb9190610586565b60405180910390f35b61010e60048036038101906101099190610468565b61020a565b005b600063150b7a0260e01b9050949350505050565b8160008083815260200190815260200160002060006101000a81548173ffffffffffffffffffffffffffffffffffffffff021916908373ffffffffffffffffffffffffffffffffffffffff1602179055505050565b600080600083815260200190815260200160002060006101000a81548173ffffffffffffffffffffffffffffffffffffffff021916908373ffffffffffffffffffffffffffffffffffffffff16021790555050565b600080600083815260200190815260200160002060009054906101000a900473ffffffffffffffffffffffffffffffffffffffff169050919050565b6000610215836101ce565b9050600160009054906101000a900473ffffffffffffffffffffffffffffffffffffffff1673ffffffffffffffffffffffffffffffffffffffff1663a9059cbb82846040518363ffffffff1660e01b81526004016102749291906105d8565b602060405180830381600087803b15801561028e57600080fd5b505af11580156102a2573d6000803e3d6000fd5b505050506040513d601f19601f820116820180604052508101906102c69190610507565b506102d083610179565b8373ffffffffffffffffffffffffffffffffffffffff166342842e0e3087866040518463ffffffff1660e01b815260040161030d939291906105a1565b600060405180830381600087803b15801561032757600080fd5b505af115801561033b573d6000803e3d6000fd5b505050505050505050565b600061035961035484610641565b61061c565b90508281526020810184848401111561037157600080fd5b61037c8482856106e6565b509392505050565b60008135905061039381610766565b92915050565b6000815190506103a88161077d565b92915050565b600082601f8301126103bf57600080fd5b81356103cf848260208601610346565b91505092915050565b6000813590506103e781610794565b92915050565b6000806000806080858703121561040357600080fd5b600061041187828801610384565b945050602061042287828801610384565b9350506040610433878288016103d8565b925050606085013567ffffffffffffffff81111561045057600080fd5b61045c878288016103ae565b91505092959194509250565b6000806000806080858703121561047e57600080fd5b600061048c87828801610384565b945050602061049d87828801610384565b93505060406104ae878288016103d8565b92505060606104bf878288016103d8565b91505092959194509250565b600080604083850312156104de57600080fd5b60006104ec85828601610384565b92505060206104fd858286016103d8565b9150509250929050565b60006020828403121561051957600080fd5b600061052784828501610399565b91505092915050565b60006020828403121561054257600080fd5b6000610550848285016103d8565b91505092915050565b61056281610672565b82525050565b61057181610690565b82525050565b610580816106dc565b82525050565b600060208201905061059b6000830184610559565b92915050565b60006060820190506105b66000830186610559565b6105c36020830185610559565b6105d06040830184610577565b949350505050565b60006040820190506105ed6000830185610559565b6105fa6020830184610577565b9392505050565b60006020820190506106166000830184610568565b92915050565b6000610626610637565b905061063282826106f5565b919050565b6000604051905090565b600067ffffffffffffffff82111561065c5761065b610726565b5b61066582610755565b9050602081019050919050565b600061067d826106bc565b9050919050565b60008115159050919050565b60007fffffffff0000000000000000000000000000000000000000000000000000000082169050919050565b600073ffffffffffffffffffffffffffffffffffffffff82169050919050565b6000819050919050565b82818337600083830152505050565b6106fe82610755565b810181811067ffffffffffffffff8211171561071d5761071c610726565b5b80604052505050565b7f4e487b7100000000000000000000000000000000000000000000000000000000600052604160045260246000fd5b6000601f19601f8301169050919050565b61076f81610672565b811461077a57600080fd5b50565b61078681610684565b811461079157600080fd5b50565b61079d816106dc565b81146107a857600080fd5b5056fea2646970667358221220c204ba1b150ac7136a4f833f9721f3195e8212476be2634d42b7a6a7f2028c8664736f6c63430008040033",
  "linkReferences": {},
  "deployedLinkReferences": {}
}